:020000040804EE
:2000000000800120452A0408792604087F260408852604088B260408912604080000000031
:20002000000000000000000000000000F16804089726040800000000416B0408A96B0408BA
:20004000952A0408952A0408952A0408952A0408952A0408952A0408952A0408952A040848
:20006000952A0408952A0408952A0408952A0408952A0408952A0408952A0408952A040828
:20008000952A0408952A0408952A040800000000000000000000000000000000952A040834
:2000A000952A0408A5260408952A0408952A0408952A0408952A0408952A0408952A0408DC
:2000C000952A0408952A0408952A0408952A0408952A0408952A0408952A04080000000093
:2000E000952A0408952A0408952A040800000000000000000000000000000000952A0408D4
:2001000000000000952A0408952A0408952A0408000000000000000000000000000000007E
:20012000952A0408952A0408952A0408952A0408952A0408000000000000000000000000C8
:20014000000000000000000000000000952A0408952A0408952A0408952A0408952A0408A8
:20016000952A0408952A0408000000000000000000000000000000000000000000000000E9
:2001800000000000952A04080000000000000000952A0408FFFFFFFFFFFFFFFFFFFFFFFFD5
:2001A00010B5054C237833B9044B13B10448AFF300800123237010BDE0010020000000009C
:2001C00038A0040808B5034B1BB103490348AFF3008008BD00000000E401002038A00408FD
:2001E000034613F8012B002AFBD1181A0138704701F0FF01102A2BDB10F0070F08D010F840
:20020000013B013A8B422DD010F0070F42B3F6D1F0B441EA012141EA014122F007047FF0E1
:2002200000070023F0E80256083C85EA010586EA010685FA47F5A3FA87F586FA47F6A5FA04
:2002400087F68EB9EED1F0BC01F0FF0102F0070232B110F8013B013A83EA010313B1F8D123
:200260000020704701387047002D06BF35460338073815F0010F07D1013015F4807F02BFE9
:20028000013015F4C03F0130F0BC0138704700BF81F0004102E000BF83F0004330B54FEA72
:2002A00041044FEA430594EA050F08BF90EA020F1FBF54EA000C55EA020C7FEA645C7FEA8D
:2002C000655C00F0E2804FEA5454D4EB5555B8BF6D420CDD2C4480EA020281EA030382EAF7
:2002E000000083EA010180EA020281EA0303362D88BF30BD11F0004F4FEA01314FF4801C7F
:200300004CEA113102D0404261EB410113F0004F4FEA03334CEA133302D0524263EB43034C
:2003200094EA050F00F0A780A4F10104D5F1200E0DDB02FA0EFC22FA05F2801841F10001BA
:2003400003FA0EF2801843FA05F359410EE0A5F120050EF1200E012A03FA0EFC28BF4CF00E
:20036000020C43FA05F3C01851EBE37101F0004507D54FF0000EDCF1000C7EEB00006EEBD8
:200380000101B1F5801F1BD3B1F5001F0CD349085FEA30004FEA3C0C04F101044FEA445270
:2003A00012F5800F80F09A80BCF1004F08BF5FEA500C50F1000041EB045141EA050130BDD5
:2003C0005FEA4C0C404141EB0101013C28BFB1F5801FE9D291F0000F04BF01460020B1FA44
:2003E00081F308BF2033A3F10B03B3F120020CDA0C3208DD02F1140CC2F10C0201FA0CF033
:2004000021FA02F10CE002F11402D8BFC2F1200C01FA02F120FA0CFCDCBF41EA0C019040B0
:20042000E41AA2BF01EB0451294330BD6FEA04041F3C1CDA0C340EDC04F11404C4F1200203
:2004400020FA04F001FA02F340EA030021FA04F345EA030130BDC4F10C04C4F1200220FA89
:2004600002F001FA04F340EA0300294630BD21FA04F0294630BD94F0000F83F4801306BF42
:2004800081F480110134013D4EE77FEA645C18BF7FEA655C29D094EA050F08BF90EA020FA7
:2004A00005D054EA000C04BF1946104630BD91EA030F1EBF0021002030BD5FEA545C05D151
:2004C0004000494128BF41F0004130BD14F580043CBF01F5801130BD01F0004545F0FE4166
:2004E00041F470014FF0000030BD7FEA645C1ABF194610467FEA655C1CBF0B46024650EA9B
:20050000013406BF52EA033591EA030F41F4002130BD00BF90F0000F04BF0021704730B5CF
:200520004FF4806404F132044FF000054FF0000150E700BF90F0000F04BF0021704730B5E0
:200540004FF4806404F1320410F0004548BF40424FF000013EE700BF42004FEAE2014FEAC0
:2005600031014FEA02701FBF12F07F4393F07F4F81F06051704732F07F4208BF704793F0EE
:200580007F4F04BF41F40021704730B54FF4607401F0004521F000411CE700BF50EA01023A
:2005A00008BF704730B54FF000050AE050EA010208BF704730B511F0004502D5404261EB1F
:2005C00041014FF4806404F132045FEA915C3FF4D8AE4FF003025FEADC0C18BF03325FEACE
:2005E000DC0C18BF033202EBDC02C2F1200300FA03FC20FA02F001FA03FE40EA0E0021FA12
:2006000002F11444BDE600BF70B54FF0FF0C4CF4E06C1CEA11541DBF1CEA135594EA0C0FE4
:2006200095EA0C0F00F0DEF82C4481EA030621EA4C5123EA4C5350EA013518BF52EA033567
:2006400041F4801143F4801338D0A0FB02CE4FF00005E1FB02E506F00042E0FB03E54FF056
:200660000006E1FB03569CF0000F18BF4EF0010EA4F1FF04B6F5007F64F5407404D25FEA92
:200680004E0E6D4146EB060642EAC62141EA55514FEAC52040EA5E504FEACE2EB4F1FD0C56
:2006A00088BFBCF5E06F1ED8BEF1004F08BF5FEA500E50F1000041EB045170BD06F0004666
:2006C00046EA010140EA020081EA0301B4EB5C04C2BFD4EB0C0541EA045170BD41F480118A
:2006E0004FF0000E013C00F3AB8014F1360FDEBF002001F0004170BDC4F10004203C35DAC8
:200700000C341BDC04F11404C4F1200500FA05F320FA04F001FA05F240EA020001F000426A
:2007200021F0004110EBD37021FA04F642EB06015EEA430E08BF20EAD37070BDC4F10C0441
:20074000C4F1200500FA04F320FA05F001FA04F240EA020001F0004110EBD37041F10001FF
:200760005EEA430E08BF20EAD37070BDC4F1200500FA05F24EEA020E20FA04F301FA05F289
:2007800043EA020321FA04F001F0004121FA04F220EA020000EBD3705EEA430E08BF20EA31
:2007A000D37070BD94F0000F0FD101F00046400041EB010111F4801F08BF013CF7D041EA17
:2007C000060195F0000F18BF704703F00046520043EB030313F4801F08BF013DF7D043EA92
:2007E0000603704794EA0C0F0CEA135518BF95EA0C0F0CD050EA410618BF52EA4306D1D176
:2008000081EA030101F000414FF0000070BD50EA410606BF1046194652EA430619D094EAE4
:200820000C0F02D150EA013613D195EA0C0F05D152EA03361CBF104619460AD181EA0301B6
:2008400001F0004141F0FE4141F470014FF0000070BD41F0FE4141F4780170BD70B54FF035
:20086000FF0C4CF4E06C1CEA11541DBF1CEA135594EA0C0F95EA0C0F00F0A7F8A4EB0504D2
:2008800081EA030E52EA03354FEA013100F088804FEA03334FF0805545EA131343EA12638B
:2008A0004FEA022245EA111545EA10654FEA00260EF000419D4208BF964244F1FD0404F597
:2008C000407402D25B084FEA3202B61A65EB03055B084FEA32024FF480104FF4002CB6EBE5
:2008E000020E75EB030E22BFB61A754640EA0C005B084FEA3202B6EB020E75EB030E22BF02
:20090000B61A754640EA5C005B084FEA3202B6EB020E75EB030E22BFB61A754640EA9C00A2
:200920005B084FEA3202B6EB020E75EB030E22BFB61A754640EADC0055EA060E18D04FEADF
:20094000051545EA16754FEA06164FEAC30343EA52734FEAC2025FEA1C1CC0D111F4801FCA
:200960000BD141EA00014FF000004FF0004CB6E711F4801F04BF01430020B4F1FD0C88BF48
:20098000BCF5E06F3FF6AFAEB5EB030C04BFB6EB020C5FEA500C50F1000041EB045170BD10
:2009A0000EF0004E4EEA113114EB5C04C2BFD4EB0C0541EA045170BD41F480114FF0000E01
:2009C000013C90E645EA060E8DE60CEA135594EA0C0F08BF95EA0C0F3FF43BAF94EA0C0FA0
:2009E0000AD150EA01347FF434AF95EA0C0F7FF425AF104619462CE795EA0C0F06D152EA01
:200A000003353FF4FDAE1046194622E750EA410618BF52EA43067FF4C5AE50EA41047FF44D
:200A20000DAF52EA43057FF4EBAE12E74FF0FF3C06E000BF4FF0010C02E000BF4FF0010C19
:200A40004DF804CD4FEA410C7FEA6C5C4FEA430C18BF7FEA6C5C1BD001B050EA410C0CBF4B
:200A600052EA430C91EA030F02BF90EA020F0020704710F1000F91EA030F58BF994208BFE5
:200A800090422CBFD8176FEAE37040F0010070474FEA410C7FEA6C5C02D150EA013C07D13D
:200AA0004FEA430C7FEA6C5CD6D152EA033CD3D05DF8040B704700BF8446104662468C4644
:200AC0001946634600E000BF01B5FFF7B7FF002848BF10F1000F01BD4DF808EDFFF7F4FFED
:200AE0000CBF012000205DF808FB00BF4DF808EDFFF7EAFF34BF012000205DF808FB00BF6F
:200B00004DF808EDFFF7E0FF94BF012000205DF808FB00BF4DF808EDFFF7CEFF94BF0120AA
:200B200000205DF808FB00BF4DF808EDFFF7C4FF34BF012000205DF808FB00BF4FEA410CBA
:200B40007FEA6C5C02D150EA013C0AD14FEA430C7FEA6C5C02D152EA033C02D14FF0000026
:200B600070474FF0010070474FEA410212F5001215D211D56FF47873B3EB625212D94FEAA1
:200B8000C12343F0004343EA505311F0004F23FA02F018BF404270474FF00000704750EA8C
:200BA000013005D111F0004008BF6FF0004070474FF00000704700BF53B94AB9002908BF1C
:200BC00000281CBF4FF0FF314FF0FF3000F074B9ADF1080C6DE904CE00F006F8DDF804E097
:200BE000DDE9022304B070472DE9F047089D04468E46002B4DD18A42944669D9B2FA82F23E
:200C000052B101FA02F3C2F1200120FA01F10CFA02FC41EA030E94404FEA1C48210CBEFB6A
:200C2000F8F61FFA8CF708FB16E341EA034306FB07F199420AD91CEB030306F1FF3080F063
:200C40001F81994240F21C81023E63445B1AA4B2B3FBF8F008FB103344EA034400FB07F74E
:200C6000A7420AD91CEB040400F1FF3380F00A81A74240F207816444023840EA0640E41B87
:200C800000261DB1D4400023C5E900433146BDE8F0878B4209D9002D00F0EF800026C5E996
:200CA000000130463146BDE8F087B3FA83F6002E4AD18B4202D3824200F2F980841A61EB00
:200CC000030301209E46002DE0D0C5E9004EDDE702B9FFDEB2FA82F2002A40F09280A1EBBC
:200CE0000C014FEA1C471FFA8CFE0126200CB1FBF7F307FB131140EA01410EFB03F0884267
:200D000008D91CEB010103F1FF3802D2884200F2CB804346091AA4B2B1FBF7F007FB10112B
:200D200044EA01440EFB00FEA64508D91CEB040400F1FF3102D2A64500F2BB800846A4EB74
:200D40000E0440EA03409CE7C6F12007B34022FA07FC4CEA030C20FA07F401FA06F31C43F4
:200D6000F9404FEA1C4900FA06F3B1FBF9F8200C1FFA8CFE09FB181140EA014108FB0EF0A3
:200D8000884202FA06F20BD91CEB010108F1FF3A80F08880884240F28580A8F102086144B5
:200DA000091AA4B2B1FBF9F009FB101144EA014100FB0EFE8E4508D91CEB010100F1FF34A8
:200DC0006CD28E456AD90238614440EA0840A0FB0294A1EB0E01A142C846A64656D353D079
:200DE0005DB1B3EB080261EB0E0101FA07F722FA06F3F1401F43C5E9007100263146BDE8E0
:200E0000F087C2F12003D8400CFA02FC21FA03F3914001434FEA1C471FFA8CFEB3FBF7F06F
:200E200007FB10360B0C43EA064300FB0EF69E4204FA02F408D91CEB030300F1FF382FD2F3
:200E40009E422DD9023863449B1B89B2B3FBF7F607FB163341EA034106FB0EF38B4208D9D5
:200E60001CEB010106F1FF3816D28B4214D9023E6144C91A46EA004638E72E46284605E76E
:200E80000646E3E61846F8E64B45A9D2B9EB020864EB0C0E0138A3E74646EAE7204694E7DE
:200EA0004046D1E7D0467BE7023B614432E7304609E76444023842E7704700BF80B483B033
:200EC00000AF7860044A7B68136000BF0C37BD465DF8047B704700BFFC01002080B483B014
:200EE00000AF0346FB71044AFB79137000BF0C37BD465DF8047B70471602002098B500AF85
:200F0000AA23184600F0DCF803461B021CB2AB23184600F0D5F803461BB223431AB2584BDA
:200F20001A80AC23184600F0CBF803461B021CB2AD23184600F0C4F803461BB223431AB2E1
:200F40004F4B5A80AE23184600F0BAF803461B021CB2AF23184600F0B3F803461BB22343D1
:200F60001AB2474B9A80B023184600F0A9F803461B021CB2B123184600F0A2F803461BB231
:200F800023431BB29AB23E4BDA80B223184600F097F803461B021CB2B323184600F090F85D
:200FA00003461BB223431BB29AB2354B1A81B423184600F085F803461B021CB2B523184675
:200FC00000F07EF803461BB223431BB29AB22C4B5A81B623184600F073F803461B021CB2FE
:200FE000B723184600F06CF803461BB223431AB2234B9A81B823184600F062F803461B02AB
:201000001CB2B923184600F05BF803461BB223431AB21B4BDA81BA23184600F051F80346BF
:201020001B021CB2BB23184600F04AF803461BB223431AB2124B1A82BC23184600F040F8B1
:2010400003461B021CB2BD23184600F039F803461BB223431AB20A4B5A82BE23184600F055
:201060002FF803461B021CB2BF23184600F028F803461BB223431AB2014B9A8200BF98BD01
:201080000002002080B586B002AF03460A46FB711346BB71FB793B73BB797B73074B186872
:2010A00007F10C024FF47A7300930223EE2102F02BF900BF1037BD4680BD00BFFC010020FB
:2010C00080B586B002AF0346FB710D4B1868FA1D4FF47A7300930123EE2102F015F9084B07
:2010E000186807F10F024FF47A7300930123EE2102F008FAFB7B18461037BD4680BD00BF63
:20110000FC01002090B585B000AF2E231946F420FFF7B8FF0523184604F0DFFCF620FFF7B7
:20112000CFFF03461C02F720FFF7CAFF03462343FB60154B5B891A46FB689B1A124A1289E7
:2011400002FB03F3002B02DA03F5FF437F33DB13BB600D4BB3F91230DA020B4BB3F9143038
:201160001946BB680B4492FBF3F37B60BA687B6813443B603B680833002B00DA0F331B1108
:2011800018461437BD4690BD0002002080B58CB000AF2E231946F420FFF774FF0523184661
:2011A00004F09BFC00F002F9B8627B4B1B781A467A4B9B5C1946F420FFF764FF764B1B780A
:2011C0001A46774B9B5C184604F087FC00F0FCF87862744B5B891A46BB6A9B1A714A128930
:2011E00002FB03F3002B02DA03F5FF437F33DB133B626C4BB3F91230DA026A4BB3F9143058
:2012000019463B6A0B4492FBF3F3FB613A6AFB691344BB61BB69A3F57A637B61614BB3F964
:201220000E301A467B6903FB03F3002B01DA03F6FF731B1302FB03F3002B01DA03F2FF7339
:20124000DB123B62574BB3F902301A467B6902FB03F3002B01DA03F2FF73DB12FB613A6AF3
:20126000FB6913443B614F4BB3F900309A003B691344494A127893400233002B00DA0333AC
:201280009B10FB60474BB3F904301A467B6902FB03F3002B02DA03F5FF531F335B133B62F1
:2012A000404BB3F90C301A467B6903FB03F3002B01DA03F6FF731B1302FB03F3002B02DAEA
:2012C00003F57F43FF331B14FB613A6AFB6913440233002B00DA03339B103B61314BDB88A2
:2012E0001A463B6903F5004302FB03F3DB0BBB607A6AFB68D31A284A127811464CF2503274
:201300000A4102FB03F37B607B68002B06DB7B685A00BB68B2FBF3F3FB6205E07A68BB688B
:20132000B2FBF3F35B00FB62FB6A002B00DAFF331B121A46FB6A002B00DAFF331B1202FB73
:2013400003F33B623B6A40F6DE3202FB03F3002B02DA03F57F43FF331B143B62FB6A124A9C
:2013600002FB03F3002B02DA03F57F43FF331B14FB613A6AFB69134403F6CF63002B00DA6D
:201380000F331B111A46FB6A1344FB62FB6A18463037BD4680BD00BF1602002034A1040824
:2013A00038A104080002002043E3FFFF98B500AFF620FFF785FE03461C02F720FFF780FE85
:2013C00003462343184698BD98B500AFF620FFF777FE03461C04F720FFF772FE03461B02E2
:2013E0001C43F820FFF76CFE034644EA0302044B1B78C3F1080342FA03F3184698BD00BF55
:201400001602002080B58AB000AF0346FB800D4BFB600D4B3B61FB88BB820023BB61802369
:20142000FB6100233B6200237B6207F10C030021184604F006FB0346044A136000BF2837ED
:20144000BD4680BD50A00408511404084402002090B585B000AF78600523FB734FF48072AD
:201460007149724800F00CFE714B00221A7002E0642004F032FB01F045FB034640F6B73276
:201480009342F5D9694800F0EEFE03461A46694B1A7019E0642004F020FB654B1B78013332
:2014A000DAB2634B1A70624B1B78013B1B01624A134419465D4800F0EBFF5C4800F0E3FE7A
:2014C00003461A465B4B1A705A4B1B78002BE1D1574B1B78002B06D1FB7B013BFB73FB7B51
:2014E000002BBBD100E000BFFB7B002B02D1534806F052FC524B1B68184604F061FD002350
:20150000BB7319E0322004F0E8FABB7B1B014A4A13440C221946454800F0AEF9322004F048
:20152000DCFABB7B1B01444A134419463F4800F03CFABB7B0133BB733D4B1B78BA7B9A42CE
:20154000E0D300BF3F4B4FF4FA721A80374800F07FF8642004F0C1FA0CE00A2004F0BDFA6C
:20156000384B1B88013B9AB2364B1A80354B1B88002B06D02D4800F073FA0346002BECD07C
:2015800000E000BF2F4B1B88002B33D000237B732AE04FF47A7004F0A0FA7B7B1B01264A09
:2015A00099187B7B1B010833234A13447C7B1A461E4800F061F8034619461F4A23011344D7
:2015C0000C330A461A707B7B1B4A1B01134408331B681846FEF7C0FF02460B461A4806F063
:2015E00055FB7B7B01337B73114B1B787A7B9A42CFD311E000233B7309E03B7B0E4A1B014C
:2016000013440C3300221A703B7B01333B73084B1B783A7B9A42F0D30C4B00221A7042F27F
:20162000107004F05AFA8CE700000240280200203D0200203C0200201802002060A00408E0
:2016400044020020400200207CA004083E02002080B582B000AF7860786800F03FFDCC2153
:20166000786800F0C1FD4421786800F0BDFD00BF0837BD4680BD000090B58BB000AFF86028
:20168000B9607A60002387F824300023FB77B86800F07AF90346002B01D10023E1E0F868BF
:2016A00000F078FD0346002B01D10023D9E0F86800F014FDB968F86800F0CBFEBE21F868C9
:2016C00000F092FD0023FB770DE0FC7FF86800F0A9FD03461A4604F128033B4403F8142C15
:2016E000FB7F0133FB77FB7F082BEED907F114030821184600F0E9FE0346BB773B7FBA7F7B
:201700009A4201D00023ACE03B7D1AB27B7D1B021BB213431BB2FB84F86800F0DFFCB7F98A
:201720002630002B05DAFB8C5B42FB84012387F824303B7E5B11DBB203F00303DBB209333B
:201740007B77FB8C1B099BB287F82530FB8C1B0A9BB21B015BB203F070035AB297F8253053
:20176000134387F825307B7F093B032B58D801A252F823F085170408AD170408D517040833
:20178000FD170408FB8CDB089BB203F0010307EE903AF8EEE77AC7ED087AD7ED087AB6EE55
:2017A000007A67EE877AC7ED087A3EE0FB8C9B089BB203F0030307EE903AF8EEE77AC7EDDB
:2017C000087AD7ED087AB5EE007A67EE877AC7ED087A2AE0FB8C5B089BB203F0070307EE65
:2017E000903AF8EEE77AC7ED087AD7ED087AB4EE007A67EE877AC7ED087A16E0FB8C03F044
:201800000F0307EE903AF8EEE77AC7ED087AD7ED087A9FED167A67EE877AC7ED087A04E0A8
:20182000134B3B62002387F8253097F9253007EE903AF8EEE77A97ED087A77EE277AC7ED0B
:20184000087A97F92430002B07D09FED0A7AD7ED087A77EE677AC7ED087A7B683A6A1A604D
:20186000012318462C37BD4690BD00BF0000803D00007F430000000080B586B000AFF86083
:20188000B9601346FB71B86800F07EF80346002B01D1002374E0F86800F020FCB968F8683A
:2018A00000F0D7FDBE21F86800F09EFCF86800F0B9FCF86800F0B6FCF86800F0B3FC03464C
:2018C000BB75F86800F0AEFC03467B75F86800F0A9FC0346FB75FB79092B08D1FB7D23F0EB
:2018E0004003FB75FB7D23F02003FB7522E0FB790A2B08D1FB7D23F04003FB75FB7D43F0AA
:201900002003FB7516E0FB790B2B08D1FB7D43F04003FB75FB7D23F02003FB750AE0FB79E1
:201920000C2B07D1FB7D43F04003FB75FB7D43F02003FB75F86800F0D1FBB968F86800F06F
:2019400088FD4E21F86800F04FFCBB7D1946F86800F04AFC7B7D1946F86800F045FCFB7D6B
:201960001946F86800F040FCF86800F0B7FBB968F86800F06EFD4821F86800F035FC012390
:2019800018461837BD4680BD80B483B000AF78607B681B78282B01D1012300E0002318464C
:2019A0000C37BD465DF8047B704780B584B000AF786039603868FFF7E7FF0346002B01D10B
:2019C000002349E0786800F089FB3968786800F040FDBE21786800F007FC786800F022FC19
:2019E000786800F01FFC786800F01CFC0346FB73786800F017FC0346BB73786800F012FC25
:201A000003467B737D23FB73C923BB73786800F065FB3968786800F01CFD4E21786800F06E
:201A2000E3FBFB7B1946786800F0DEFBBB7B1946786800F0D9FB7B7B1946786800F0D4FB1D
:201A4000786800F04BFB3968786800F002FD4821786800F0C9FB012318461037BD4680BDFA
:201A600080B582B000AF7860786800F093FB034618460837BD4680BD80B485B000AFF86084
:201A8000B9607A60FB68074A1A60BB68064A1A607B6880221A6000BF1437BD465DF8047B58
:201AA000704700BF4C02002000030020B0B588B000AF0A4B3C1D1D460FCD0FC495E807008F
:201AC00084E807003B1D0021184603F0BAFF0346034A136000BF2037BD46B0BDA8A004082D
:201AE0004802002080B582B000AF7860012003F0F4FFFBE780B58AB000AF07F11403002256
:201B00001A605A609A60DA601A6100233B613F4B1B6B3E4A43F0040313633C4B1B6B03F0DB
:201B200004033B613B690023FB60384B1B6B374A43F080031363354B1B6B03F08003FB6053
:201B4000FB680023BB60314B1B6B304A43F0010313632E4B1B6B03F00103BB60BB68002364
:201B60007B602A4B1B6B294A43F002031363274B1B6B03F002037B607B6800224FF490715A
:201B8000234801F049FA00222021224801F044FA4FF400537B614FF40413BB610023FB6143
:201BA00007F1140319461B4801F09AF820237B610123BB610023FB6100233B6207F1140324
:201BC0001946134801F08CF820237B610123BB610023FB6100233B6207F1140319460D4875
:201BE00001F07EF84FF480737B611123BB610123FB6100233B6207F114031946044801F031
:201C00006FF800BF2837BD4680BD00BF00380240000002400008024080B500AF124B134A9C
:201C20001A60114B124A5A600F4B00229A600E4B0022DA600C4B4FF480421A610A4B00223F
:201C40005A61094B00229A61074B0022DA61064B00221A62044801F013FA0346002B01D02B
:201C600000F09CF900BF80BD0005002000540040A086010080B58AB000AF786007F11403FE
:201C800000221A605A609A60DA601A617B681B68194A93422CD100233B61184B1B6B174A9B
:201CA00043F002031363154B1B6B03F002033B613B694FF440737B611223BB610023FB61B6
:201CC00003233B6204237B6207F1140319460C4801F006F80023FB60084B1B6C074A43F4AC
:201CE00000131364054B1B6C03F40013FB60FB6800BF2837BD4680BD00540040003802404F
:201D00000004024080B582B000AF7860391D4FF0FF330122034803F000FB7B6818460837EC
:201D2000BD4680BDF005002080B588B000AF00F0B3FE00F037F8FFF7DDFE00F011FEFFF7AC
:201D40006BFF00F095FD134806F026F80023FB83114B3B60114B7B60FB8B3B810023FB6099
:201D600080233B6100237B610023BB613B460021184603F066FE0346094A1360002000F070
:201D80007BF80020FFF73EFBFFF790FE03F052FEFEE700BFC4A00408E0A00408591F040896
:201DA0005805002080B594B000AF07F1200330220021184605F063FA07F10C0300221A609D
:201DC0005A609A60DA601A610023BB60284B1B6C274A43F080531364254B1B6C03F08053B7
:201DE000BB60BB6800237B60224B1B6823F44043204A43F4004313601E4B1B6803F4404360
:201E00007B607B6802233B620123FB6210233B630223BB630023FB6308233B6454237B640C
:201E20000223BB640723FB6407F12003184602F0BDF80346002B01D000F0B0F80F23FB604B
:201E400002233B6100237B614FF48053BB610023FB6107F10C030221184602F01FFB034634
:201E6000002B01D000F09AF800BF5037BD4680BD003802400070004080B58AB000AF0346CD
:201E8000FB80114BFB60114B3B61FB88BB820023BB618023FB6100233B6200237B6207F162
:201EA0000C030021184603F0CCFD0346084A13600848FFF703F80320FFF710F8FFF71EF85C
:201EC00000BF2837BD4680BDF0A00408D91E0408540500200005002090B5A1B002AF786048
:201EE000FFF710F97867FFF751F938677B6F174A82FB03129210DB17D41A7A6F134B83FB01
:201F000002139910D317C91A0B469B000B445B00D11A07F10C003B6F00930B4622460C4966
:201F200005F0BCFF07F10C031846FEF759F903469AB207F10C014FF47A73064803F0EDF954
:201F400040F6B83003F0C9FDCAE700BF6766666600A10408F005002080B582B000AF7860F1
:201F60002021044801F071F84FF4FA7003F0B5FDF6E700BF0008024080B582B000AF786054
:201F80007B681B68044A934201D100F0A7FD00BF0837BD4680BD00BF0044014080B400AFED
:201FA00072B600BFFEE7000080B483B000AF0346FB80094B1B6800225A6200BF064B1B6833
:201FC0005A6AFB889A42F9D900BF00BF0C37BD465DF8047B704700BFA805002080B483B0CA
:201FE00000AF78607B689B881A047B681B689A6100BF0C37BD465DF8047B704780B483B0DE
:2020000000AF78607B689A887B681B689A6100BF0C37BD465DF8047B704780B588B000AF27
:20202000786000233B6100237B610223BB617B689B88FB607B681B6807F10C021146184647
:2020400000F04EFE00BF2037BD4680BD80B588B000AF786011233B6100237B610223BB61EA
:202060007B689B88FB607B681B6807F10C021146184600F035FE00BF2037BD4680BD000065
:2020800080B584B000AFF860B9601346FB80124802F0A6FCFB68BA681A60FB68FA889A80F7
:2020A000F868FFF7D3FFF868FFF7A8FF4FF47A7003F013FDF868FFF791FF4FF47A7003F0C5
:2020C0000CFDF868FFF79AFF4FF4FA6003F005FD00BF1037BD4680BDA805002080B584B0FA
:2020E00000AF78607868FFF779FF7868FFF7AEFF4FF4F070FFF758FF1420FFF755FF78683A
:20210000FFF78BFF4620FFF74FFF7B681A687B689B881946104600F067FF0346FB734FF425
:20212000CD70FFF741FFFB7B18461037BD4680BD80B582B000AF78600B46FB70FB78002B89
:2021400012D07868FFF74AFF7868FFF77FFF0A20FFF72AFF7868FFF760FF3720FFF724FF3C
:202160007868FFF75AFF11E07868FFF737FF7868FFF76CFF4120FFF717FF7868FFF74DFF63
:202180000520FFF711FF7868FFF747FF00BF0837BD4680BD80B584B000AF78600023FB7339
:2021A0007868FFF71BFF7868FFF750FF0220FFF7FBFE7868FFF731FF0A20FFF7F5FE7B68FD
:2021C0001A687B689B881946104600F00DFF0346002B01D00123FB733220FFF7E5FEFB7B4E
:2021E00018461037BD4680BD80B584B000AF78600B46FB700823FB730AE0FB7803F0010361
:20220000DBB219467868FFF793FFFB785B08FB70FB7B5A1EFA73002BEFD100BF00BF10371E
:20222000BD4680BD80B584B000AF78600823FB730023BB730DE0BB7B5B08BB737868FFF7FA
:20224000A9FF0346DB015AB297F90E3013435BB2BB73FB7B5A1EFA73002BECD1BB7B18466F
:202260001037BD4680BD80B582B000AF7860786800F016F8F021786800F025F80346184666
:202280000837BD4680BD80B582B000AF7860F021786800F018F8034618460837BD4680BDBA
:2022A00080B483B000AF78607B6800229A717B6800221A727B680022DA7100BF0C37BD463A
:2022C0005DF8047B704780B584B000AF78600B46FB700123FB730023BB7300237B730123AF
:2022E000FB7200233B737B681B7A002B40F09A807868FFF7F3FE0346002B0AD07B68002299
:202300009A717B6800221A727B680022DA7100239BE0FB7819467868FFF766FF7868FFF750
:2023200039FF03467B727868FFF734FF03463B727B7A012B02D13B7A012B64D07A7A3B7A7E
:202340009A4202D07B7ABB7226E07B689B79FA7B9A420DD27B7B7A6813445A7AFB7A1340B5
:20236000DBB2002B14BF01230023DBB2BB7208E07B689B79FA7B9A420CBF01230023DBB202
:20238000BB72BB7A002B07D1FB7BBB73BB7B082B02D87B68BA7BDA71BB7A012B0CD17B7B5A
:2023A0007A681344597A7B7BFA7A0A43D1B27A6813440A465A7210E07B7B7A6813445B7A8E
:2023C0005AB297F90B30DB435BB213405AB27B7BD1B27A6813440A465A72BB7A194678685A
:2023E000FFF7A6FEFB7B0133FB73FB7A5B00FB72FB7A002B04D17B7B01337B730123FB72D0
:202400007B7B072B8AD9FB7B402B0BD97B68BA7B9A717B689B79002B02D17B6801221A72C2
:2024200001233B733B7B002B03D07B685B7A002B0AD17B6800229A717B6800221A727B68D4
:202440000022DA7100233B733B7B18461037BD4680BD80B584B000AF7860396055217868C4
:20246000FFF7C2FE0023FB730AE0FB7B3A6813441B7819467868FFF7B7FEFB7B0133FB7327
:20248000FB7B072BF1D900BF00BF1037BD4680BD80B485B000AF786039600023FB730AE0C1
:2024A000FA7BFB7B39680B4479680A44527A1A70FB7B0133FB73FB7B072BF1D900BF00BFB4
:2024C0001437BD465DF8047B704780B485B000AF78600B46FB700023FB7322E07B685A1C8B
:2024E0007A601B78BB7308237B7317E0FA7BBB7B5340DBB203F001033B73FB7B5B08FB737A
:202500003B7B002B04D0FB7B83F07303DB43FB73BB7B5B08BB737B7B013B7B737B7B002B13
:20252000E4D1FB785A1EFA70002BD7D1FB7B18461437BD465DF8047B7047000080B582B0AA
:2025400000AF00237B60124B5B6C114A43F4804353640F4B5B6C03F480437B607B680023E2
:202560003B600B4B1B6C0A4A43F080531364084B1B6C03F080533B603B6800220F216FF083
:20258000010000F083FB00BF0837BD4680BD00BF0038024080B58CB000AF78600023BB621D
:2025A00000237B620023BB602E4B5B6C2D4A43F4003353642B4B5B6C03F40033BB60BB6860
:2025C00007F10C0207F110031146184602F086F902F070F9B862BB6A234AA2FB03239B0C53
:2025E000013B7B62214B224A1A60204B40F2E732DA601E4A7B6A53601C4B00221A611B4B16
:2026000000229A60194B00229A61184802F098F9034687F82F3097F82F30002B1BD11348B3
:2026200002F038FA034687F82F3097F82F30002B11D1192000F046FB7B680F2B08D80022CB
:202640007968192000F022FB0A4A7B68136002E0012387F82F3097F82F3018463037BD460F
:2026600080BD00BF0038024083DE1B435C050020004401400400002080B400AFFEE780B4FF
:2026800000AFFEE780B400AFFEE780B400AFFEE780B400AFFEE780B400AF00BFBD465DF854
:2026A000047B704780B500AF034802F055FA034802F052FA00BF80BDA80500205C050020A1
:2026C00080B400AF01231846BD465DF8047B704780B582B000AF7860396004F09FFC0346A8
:2026E00016221A604FF0FF3318460837BD4680BD80B582B000AF78604FF0FF317868FFF7A7
:20270000E7FFFEE780B586B000AFF860B9607A6000237B610AE0AFF300800146BB685A1C9E
:20272000BA60CAB21A707B6901337B617A697B689A42F0DB7B6818461837BD4680BD80B513
:2027400086B000AFF860B9607A6000237B6109E0BB685A1CBA601B781846FFF7D3FA7B6916
:2027600001337B617A697B689A42F1DB7B6818461837BD4680BD80B483B000AF78604FF0DE
:20278000FF3318460C37BD465DF8047B704780B483B000AF786039603B684FF400525A605F
:2027A000002318460C37BD465DF8047B704780B483B000AF7860012318460C37BD465DF8BC
:2027C000047B704780B485B000AFF860B9607A60002318461437BD465DF8047B7047000006
:2027E00080B586B000AF7860144A154BD31A7B617B693B61134B1B68002B02D1114B124A49
:202800001A60104B1A687B6813443A699A4207D204F004FC03460C221A604FF0FF3309E090
:20282000084B1B68FB60074B1A687B681344054A1360FB6818461837BD4680BD00800120A6
:2028400000040000A4050020A043002080B400AF064BD3F88830054A43F47003C2F8883086
:2028600000BFBD465DF8047B704700BF00ED00E080B586B000AF07F1080300221A605A600C
:202880009A60DA603B4600221A605A601E4B1F4A1A601D4B53225A601B4B00229A601A4B63
:2028A0004FF6FF72DA60184B00221A61164B00225A61154B00229A61134802F041F803469E
:2028C000002B01D0FFF76AFB4FF48053BB6007F1080319460C4802F047FA0346002B01D042
:2028E000FFF75CFB00233B6000237B603B461946054802F043FC0346002B01D0FFF74EFBED
:2029000000BF1837BD4680BDA80500200000014080B584B000AF78607B681B680E4A9342D8
:2029200015D10023FB600D4B5B6C0C4A43F0010353640A4B5B6C03F00103FB60FB680022DD
:202940000F21192000F0A2F9192000F0BBF900BF1037BD4680BD00BF0000014000380240E6
:2029600080B500AF114B124A1A60104B4FF4E1325A600E4B00229A600C4B0022DA600B4B58
:2029800000221A61094B0C225A61084B00229A61064B0022DA61054802F072FC0346002B1E
:2029A00001D0FFF7FBFA00BF80BD00BFF00500200044004080B58AB000AF786007F1140302
:2029C00000221A605A609A60DA601A617B681B68194A93422BD100233B61184B1B6C174A4E
:2029E00043F400331364154B1B6C03F400333B613B690023FB60114B1B6B104A43F00103B4
:202A000013630E4B1B6B03F00103FB60FB680C237B610223BB610023FB6100233B620723F7
:202A20007B6207F114031946054800F059F900BF2837BD4680BD00BF0044004000380240A1
:202A400000000240DFF834D00D480E490E4A002302E0D458C4500433C4188C42F9D30B4A0E
:202A60000B4C002301E013600432A242FBD3FFF7EDFE04F0CFFBFFF757F970470080012063
:202A800000000020E00100203CA50408E00100209C430020FEE7000080B500AF0E4B1B6883
:202AA0000D4A43F4007313600B4B1B680A4A43F480631360084B1B68074A43F48073136024
:202AC000032000F0D8F80F20FFF764FDFFF736FD0023184680BD00BF003C024080B400AF86
:202AE000064B1B781A46064B1B681344044A136000BFBD465DF8047B704700BF0800002072
:202B00003406002080B400AF034B1B681846BD465DF8047B704700BF3406002080B485B039
:202B200000AF78607B6803F00703FB600C4BDB68BB60BA684FF6FF031340BB60FB681A02C8
:202B4000BB68134343F0BF6343F40033BB60044ABB68D36000BF1437BD465DF8047B7047E6
:202B600000ED00E080B400AF044BDB681B0A03F007031846BD465DF8047B704700ED00E038
:202B800080B483B000AF0346FB7197F90730002B0BDBFB7903F01F02074997F907305B098F
:202BA000012000FA02F241F8232000BF0C37BD465DF8047B704700BF00E100E080B483B013
:202BC00000AF03463960FB7197F90730002B0ADB3B68DAB20C4997F907301201D2B20B44F0
:202BE00083F800230AE03B68DAB20849FB7903F00F03043B1201D2B20B441A7600BF0C379D
:202C0000BD465DF8047B704700E100E000ED00E080B489B000AFF860B9607A60FB6803F0DB
:202C20000703FB61FB69C3F10703042B28BF0423BB61FB690433062B02D9FB69033B00E08A
:202C400000237B614FF0FF32BB6902FA03F3DA43BB681A407B699A404FF0FF317B6901FA49
:202C600003F3D9437B680B40134318462437BD465DF8047B704780B582B000AF78607868A9
:202C8000FFF74CFF00BF0837BD4680BD80B586B000AF0346B9607A60FB7300237B61FFF7FC
:202CA00061FF78617A68B9687869FFF7B1FF024697F90F3011461846FFF780FF00BF183702
:202CC000BD4680BD80B582B000AF0346FB7197F907301846FFF754FF00BF0837BD4680BD3D
:202CE00080B489B000AF7860396000237B6100233B610023BB610023FB6159E10122FB690A
:202D000002FA03F37B613B681B687A6913403B613A697B699A4240F048813B685B6803F038
:202D20000303012B05D03B685B6803F00303022B30D17B689B68BB61FB695B00032202FA1D
:202D400003F3DB43BA691340BB613B68DA68FB695B0002FA03F3BA691343BB617B68BA699C
:202D60009A607B685B68BB610122FB6902FA03F3DB43BA691340BB613B685B681B0903F0F1
:202D80000102FB6902FA03F3BA691343BB617B68BA695A603B685B6803F00303032B17D011
:202DA0007B68DB68BB61FB695B00032202FA03F3DB43BA691340BB613B689A68FB695B00E7
:202DC00002FA03F3BA691343BB617B68BA69DA603B685B6803F00303022B23D1FB69DA0866
:202DE0007B68083253F82230BB61FB6903F007039B000F2202FA03F3DB43BA691340BB612E
:202E00003B681A69FB6903F007039B0002FA03F3BA691343BB61FB69DA087B680832B96984
:202E200043F822107B681B68BB61FB695B00032202FA03F3DB43BA691340BB613B685B68B7
:202E400003F00302FB695B0002FA03F3BA691343BB617B68BA691A603B685B6803F44033E4
:202E6000002B00F0A2800023FB60574B5B6C564A43F480435364544B5B6C03F48043FB6062
:202E8000FB68524AFB699B08023352F82330BB61FB6903F003039B000F2202FA03F3DB4305
:202EA000BA691340BB617B68494A934219D07B68484A934213D07B68474A93420DD07B6816
:202EC000464A934207D07B68454A934201D1042308E0072306E0032304E0022302E0012349
:202EE00000E00023FA6902F0030292009340BA691343BB613549FB699B080233BA6941F865
:202F00002320384B9B68BB613B69DB43BA691340BB613B685B6803F48013002B03D0BA6967
:202F20003B691343BB612F4ABB6993602D4BDB68BB613B69DB43BA691340BB613B685B685A
:202F400003F40013002B03D0BA693B691343BB61244ABB69D360234B5B68BB613B69DB435C
:202F6000BA691340BB613B685B6803F40033002B03D0BA693B691343BB611A4ABB695360BD
:202F8000184B1B68BB613B69DB43BA691340BB613B685B6803F48033002B03D0BA693B6906
:202FA0001343BB610F4ABB691360FB690133FB61FB690F2B7FF6A2AE00BF00BF2437BD467C
:202FC0005DF8047B704700BF0038024000380140000002400004024000080240000C024094
:202FE00000100240003C014080B485B000AF78600B467B807B681A697B881340002B02D00D
:203000000123FB7301E00023FB73FB7B18461437BD465DF8047B704780B483B000AF786011
:203020000B467B8013467B707B78002B03D07A887B689A6103E07B881A047B689A6100BF8E
:203040000C37BD465DF8047B704780B485B000AF78600B467B807B685B69FB607A88FB68FC
:2030600013401A04FB68D9437B880B401A437B689A6100BF1437BD465DF8047B704700003F
:2030800080B584B000AF78607B68002B01D101232BE17B6893F83D30DBB2002B06D17B68E3
:2030A000002283F83C207868FEF7E4FD7B68242283F83D207B681B681A687B681B6822F000
:2030C00001021A607B681B681A687B681B6842F400421A607B681B681A687B681B6822F4CF
:2030E00000421A6001F0D2FBF8607B685B68814A934207D8FB68804A934294BF012300233D
:20310000DBB206E0FB687D4A934294BF01230023DBB2002B01D00123E7E0FB68784AA2FB6D
:2031200003239B0CBB607B681B685B6823F03F017B681B68BA680A435A607B681B681B6AB1
:2031400023F03F017B685B686A4A934202D8BB68013309E0BB684FF4967202FB03F3694ABF
:20316000A2FB03239B0901337A6812680B4313627B681B68DB6923F44F4222F0FF027B684D
:203180005B685C498B4219D8FB68591E7B685B685B00B1FBF3F3591C40F6FC730B40002B0C
:2031A0000AD0FB68591E7B685B685B00B1FBF3F30133C3F30B0351E004234FE07B689B6863
:2031C000002B11D1FB68581E7B6859680B465B000B44B0FBF3F30133C3F30B03002B0CBFEB
:2031E00001230023DBB212E0FB68581E7B6859680B469B000B4499000B44B0FBF3F30133A4
:20320000C3F30B03002B0CBF01230023DBB2002B01D0012322E07B689B68002B0ED1FB68AB
:20322000581E7B6859680B465B000B44B0FBF3F30133C3F30B0343F400430FE0FB68581EAE
:203240007B6859680B469B000B4499000B44B0FBF3F30133C3F30B0343F440437968096812
:203260001343CB617B681B681B6823F0C0017B68DA697B681B6A1A437B681B680A431A60F7
:203280007B681B689B6823F4034323F0FF037A6811697A68D26811437A6812680B439360EA
:2032A0007B681B68DB6823F0FF017B685A697B689B691A437B681B680A43DA607B681B6815
:2032C0001A687B681B6842F001021A607B6800221A647B68202283F83D207B6800221A6355
:2032E0007B68002283F83E20002318461037BD4680BD00BFA08601007F841E00FF083D009D
:2033000083DE1B43D34D621080B588B002AFF8607A601A460B467B8113463B81FFF7F2FB67
:203320007861FB6893F83D30DBB2202B40F0E0807B690093192301227049F86800F058FCBE
:203340000346002B01D00223D3E0FB6893F83C30012B01D10223CCE0FB68012283F83C20CA
:20336000FB681B681B6803F00103012B07D0FB681B681A68FB681B6842F001021A60FB688A
:203380001B681A68FB681B6822F400621A60FB68212283F83D20FB68102283F83E20FB6801
:2033A00000221A64FB687A685A62FB683A895A85FB685B8D9AB2FB681A85FB68504ADA6295
:2033C00079897B693A6AF86800F0C2FA0346002B01D001238DE000233B61FB681B685B6918
:2033E0003B61FB681B689B693B613B6966E07A69396AF86800F0D2FC0346002B0DD0FB6869
:203400001B6C042B07D1FB681B681A68FB681B6842F400721A6001236BE0FB685B6A1A7885
:20342000FB681B681A61FB685B6A5A1CFB685A62FB685B8D9BB2013B9AB2FB685A85FB68A9
:203440001B8D013B9AB2FB681A85FB681B685B6903F00403042B1BD1FB681B8D002B17D05E
:20346000FB685B6A1A78FB681B681A61FB685B6A5A1CFB685A62FB685B8D9BB2013B9AB254
:20348000FB685A85FB681B8D013B9AB2FB681A857A69396AF86800F0C2FC0346002B0DD070
:2034A000FB681B6C042B07D1FB681B681A68FB681B6842F400721A6001231AE0FB681B8D82
:2034C000002B94D1FB681B681A68FB681B6842F400721A60FB68202283F83D20FB680022EA
:2034E00083F83E20FB68002283F83C20002300E0022318461837BD4680BD00BF02001000B1
:203500000000FFFF80B58CB002AFF8607A601A460B467B8113463B81FFF7F4FA7862FB6876
:2035200093F83D30DBB2202B40F00B827B6A0093192301227C49F86800F05AFB0346002B49
:2035400001D00223FEE1FB6893F83C30012B01D10223F7E1FB68012283F83C20FB681B68FE
:203560001B6803F00103012B07D0FB681B681A68FB681B6842F001021A60FB681B681A6869
:20358000FB681B6822F400621A60FB68222283F83D20FB68102283F83E20FB6800221A6463
:2035A000FB687A685A62FB683A895A85FB685B8D9AB2FB681A85FB685C4ADA6279897B6A40
:2035C0003A6BF86800F046FA0346002B01D00123B8E1FB681B8D002B13D100233B62FB6877
:2035E0001B685B693B62FB681B689B693B623B6AFB681B681A68FB681B6842F400721A604B
:203600008CE1FB681B8D012B1BD1FB681B681A68FB681B6822F480621A600023FB61FB6878
:203620001B685B69FB61FB681B689B69FB61FB69FB681B681A68FB681B6842F400721A60CD
:203640006CE1FB681B8D022B1BD1FB681B681A68FB681B6822F480621A60FB681B681A68D1
:20366000FB681B6842F400621A600023BB61FB681B685B69BB61FB681B689B69BB61BB6923
:203680004CE1FB681B681A68FB681B6842F480621A6000237B61FB681B685B697B61FB6835
:2036A0001B689B697B617B6938E1FB681B8D032B00F2F180FB681B8D012B23D17A6A396B5B
:2036C000F86800F0EDFB0346002B01D0012339E1FB681B681A69FB685B6AD2B21A70FB682D
:2036E0005B6A5A1CFB685A62FB681B8D013B9AB2FB681A85FB685B8D9BB2013B9AB2FB6858
:203700005A850BE1FB681B8D022B4ED17B6A00933B6B00220649F86800F06AFA0346002BD0
:2037200008D001230EE100BF020010000000FFFF04000100FB681B681A68FB681B6842F446
:2037400000721A60FB681B681A69FB685B6AD2B21A70FB685B6A5A1CFB685A62FB681B8D16
:20376000013B9AB2FB681A85FB685B8D9BB2013B9AB2FB685A85FB681B681A69FB685B6ACC
:20378000D2B21A70FB685B6A5A1CFB685A62FB681B8D013B9AB2FB681A85FB685B8D9BB231
:2037A000013B9AB2FB685A85B8E07B6A00933B6B00226649F86800F01BFA0346002B01D00E
:2037C0000123BFE0FB681B681A68FB681B6822F480621A60FB681B681A69FB685B6AD2B251
:2037E0001A70FB685B6A5A1CFB685A62FB681B8D013B9AB2FB681A85FB685B8D9BB2013B19
:203800009AB2FB685A857B6A00933B6B00224F49F86800F0EDF90346002B01D0012391E032
:20382000FB681B681A68FB681B6842F400721A60FB681B681A69FB685B6AD2B21A70FB6816
:203840005B6A5A1CFB685A62FB681B8D013B9AB2FB681A85FB685B8D9BB2013B9AB2FB68F6
:203860005A85FB681B681A69FB685B6AD2B21A70FB685B6A5A1CFB685A62FB681B8D013BC6
:203880009AB2FB681A85FB685B8D9BB2013B9AB2FB685A8542E07A6A396BF86800F000FB83
:2038A0000346002B01D001234CE0FB681B681A69FB685B6AD2B21A70FB685B6A5A1CFB68D3
:2038C0005A62FB681B8D013B9AB2FB681A85FB685B8D9BB2013B9AB2FB685A85FB681B684F
:2038E0005B6903F00403042B18D1FB681B681A69FB685B6AD2B21A70FB685B6A5A1CFB6852
:203900005A62FB681B8D013B9AB2FB681A85FB685B8D9BB2013B9AB2FB685A85FB681B8DE9
:20392000002B7FF4C2AEFB68202283F83D20FB68002283F83E20FB68002283F83C2000231F
:2039400000E0022318462837BD4680BD0400010080B588B002AFF8607A603B600B467B8128
:20396000FB68DB6A7B617B69082B06D07B69012B03D07B6913F5803F08D1FB681B681A6807
:20398000FB681B6842F480721A600BE0FB681B6B122B07D1FB681B681A68FB681B6842F432
:2039A00080721A603B6800937B6800224FF00111F86800F01DF90346002B0DD0FB681B6872
:2039C0001B6803F48073B3F5807F03D1FB684FF400721A64032335E0FB681B69B3F5804FD0
:2039E00008D17B89DBB21A46FB681B6802F0FE021A611BE07B89DB11DBB203F00603DBB2A9
:203A000063F00F03DAB2FB681B681A613B687A680E49F86800F043F90346002B01D0012383
:203A200010E07B89DAB2FB681B681A613B687A680749F86800F033F90346002B01D00123EB
:203A400000E0002318461837BD4680BD080001000200010080B588B002AFF8607A603B607F
:203A60000B467B81FB68DB6A7B61FB681B681A68FB681B6842F480621A607B69082B06D0A8
:203A80007B69012B03D07B6913F5803F08D1FB681B681A68FB681B6842F480721A600BE0E4
:203AA000FB681B6B112B07D1FB681B681A68FB681B6842F480721A603B6800937B680022DE
:203AC0004FF00111F86800F093F80346002B0DD0FB681B681B6803F48073B3F5807F03D19B
:203AE000FB684FF400721A64032379E0FB681B69B3F5804F08D17B89DBB243F00103DAB226
:203B0000FB681B681A615FE07B89DB11DBB203F00603DBB263F00F03DAB2FB681B681A61AD
:203B20003B687A683049F86800F0B9F80346002B01D0012354E07B89DAB2FB681B681A61F8
:203B40003B687A682949F86800F0A9F80346002B01D0012344E000233B61FB681B685B6987
:203B60003B61FB681B689B693B613B69FB681B681A68FB681B6842F480721A603B68009359
:203B80007B6800224FF00111F86800F031F80346002B0DD0FB681B681B6803F48073B3F50A
:203BA000807F03D1FB684FF400721A64032317E07B89DB11DBB203F00603DBB263F00E0315
:203BC000DAB2FB681B681A613B687A680749F86800F065F80346002B01D0012300E000230A
:203BE00018461837BD4680BD080001000200010080B584B000AFF860B9603B601346FB71E3
:203C000025E03B68B3F1FF3F21D0FEF77BFF0246BB69D31A3A689A4202D33B68002B16D159
:203C2000FB6800221A63FB68202283F83D20FB68002283F83E20FB681B6C43F02002FB6805
:203C40001A64FB68002283F83C20012323E0BB681B0CDBB2012B0DD1FB681B685B69DA43BB
:203C6000BB6813409BB2002B0CBF01230023DBB21A460CE0FB681B689B69DA43BB681340EE
:203C80009BB2002B0CBF01230023DBB21A46FB799A42B6D0002318461037BD4680BD80B59A
:203CA00084B000AFF860B9607A603B6051E0FB681B685B6903F48063B3F5806F23D1FB6898
:203CC0001B681A68FB681B6842F400721A60FB681B686FF480625A61FB6800221A63FB688C
:203CE000202283F83D20FB68002283F83E20FB681B6C43F00402FB681A64FB68002283F848
:203D00003C20012346E07B68B3F1FF3F21D0FEF7F9FE02463B68D31A7A689A4202D37B680D
:203D2000002B16D1FB6800221A63FB68202283F83D20FB68002283F83E20FB681B6C43F077
:203D40002002FB681A64FB68002283F83C20012320E0BB681B0CDBB2012B0CD1FB681B681A
:203D60005B69DA43BB6813409BB2002B14BF01230023DBB20BE0FB681B689B69DA43BB68B8
:203D800013409BB2002B14BF01230023DBB2002B8DD1002318461037BD4680BD80B584B0B7
:203DA00000AFF860B9607A602DE0F86800F0CEF80346002B01D001232DE0BB68B3F1FF3F6B
:203DC00021D0FEF79FFE02467B68D31ABA689A4202D3BB68002B16D1FB6800221A63FB68DB
:203DE000202283F83D20FB68002283F83E20FB681B6C43F02002FB681A64FB68002283F82B
:203E00003C20012307E0FB681B685B6903F08003802BCAD1002318461037BD4680BD80B598
:203E200084B000AFF860B9607A602DE0F86800F08DF80346002B01D001232DE0BB68B3F135
:203E4000FF3F21D0FEF75EFE02467B68D31ABA689A4202D3BB68002B16D1FB6800221A63C0
:203E6000FB68202283F83D20FB68002283F83E20FB681B6C43F02002FB681A64FB680022C2
:203E800083F83C20012307E0FB681B685B6903F00403042BCAD1002318461037BD4680BDCA
:203EA00080B584B000AFF860B9607A6042E0FB681B685B6903F01003102B19D1FB681B68C2
:203EC0006FF010025A61FB6800221A63FB68202283F83D20FB68002283F83E20FB681A6CF0
:203EE000FB681A64FB68002283F83C20012329E0FEF708FE02467B68D31ABA689A4202D372
:203F0000BB68002B16D1FB6800221A63FB68202283F83D20FB68002283F83E20FB681B6CA5
:203F200043F02002FB681A64FB68002283F83C20012307E0FB681B685B6903F04003402B99
:203F4000B5D1002318461037BD4680BD80B483B000AF78607B681B685B6903F48063B3F539
:203F6000806F1BD17B681B686FF480625A617B6800221A637B68202283F83D207B6800227C
:203F800083F83E207B681B6C43F004027B681A647B68002283F83C20012300E000231846E3
:203FA0000C37BD465DF8047B7047000080B586B000AF78607B68002B01D1012367E27B680E
:203FC0001B6803F00103002B75D0884B9B6803F00C03042B0CD0854B9B6803F00C03082B0C
:203FE00012D1824B5B6803F48003B3F5800F0BD17E4B1B6803F40033002B5BD07B685B684F
:20400000002B57D1012342E27B685B68B3F5803F06D1764B1B68754A43F4803313601DE0C4
:204020007B685B68B3F5A02F0CD1704B1B686F4A43F4802313606D4B1B686C4A43F4803367
:2040400013600BE0694B1B68684A23F480331360664B1B68654A23F4802313607B685B6826
:20406000002B13D0FEF74EFD386108E0FEF74AFD02463B69D31A642B01D9032307E25B4B3E
:204080001B6803F40033002BF0D014E0FEF73AFD386108E0FEF736FD02463B69D31A642B57
:2040A00001D90323F3E1514B1B6803F40033002BF0D100E000BF7B681B6803F00203002BCF
:2040C00063D04A4B9B6803F00C03002B0BD0474B9B6803F00C03082B1CD1444B5B6803F40D
:2040E0008003002B16D1414B1B6803F00203002B05D07B68DB68012B01D00123C7E13B4BAF
:204100001B6823F0F8027B681B69DB00374913430B603AE07B68DB68002B20D0344B01228F
:204120001A60FEF7EFFC386108E0FEF7EBFC02463B69D31A022B01D90323A8E12B4B1B6840
:2041400003F00203002BF0D0284B1B6823F0F8027B681B69DB00254913430B6015E0244BA4
:2041600000221A60FEF7CEFC386108E0FEF7CAFC02463B69D31A022B01D9032387E11B4BD4
:204180001B6803F00203002BF0D17B681B6803F00803002B36D07B685B69002B16D0154B0B
:2041A00001221A60FEF7AEFC386108E0FEF7AAFC02463B69D31A022B01D9032367E10B4B03
:2041C0005B6F03F00203002BF0D01BE0094B00221A60FEF797FC38610EE0FEF793FC02466C
:2041E0003B69D31A022B07D9032350E10038024000004742800E4742884B5B6F03F002031B
:20420000002BEAD17B681B6803F00403002B00F097800023FB75814B1B6C03F08053002B4F
:204220000FD10023BB607D4B1B6C7C4A43F0805313647A4B1B6C03F08053BB60BB6801235A
:20424000FB75774B1B6803F48073002B18D1744B1B68734A43F480731360FEF753FC386132
:2042600008E0FEF74FFC02463B69D31A022B01D903230CE16A4B1B6803F48073002BF0D016
:204280007B689B68012B06D1644B1B6F634A43F0010313671CE07B689B68052B0CD15F4B05
:2042A0001B6F5E4A43F0040313675C4B1B6F5B4A43F0010313670BE0584B1B6F574A23F0C5
:2042C00001031367554B1B6F544A23F0040313677B689B68002B15D0FEF714FC38610AE086
:2042E000FEF710FC02463B69D31A41F28832934201D90323CBE0494B1B6F03F00203002B36
:20430000EED014E0FEF7FEFB38610AE0FEF7FAFB02463B69D31A41F28832934201D90323F5
:20432000B5E03E4B1B6F03F00203002BEED1FB7D012B05D1394B1B6C384A23F0805313648F
:204340007B689B69002B00F0A180344B9B6803F00C03082B5CD07B689B69022B41D1314BB5
:2043600000221A60FEF7CEFB386108E0FEF7CAFB02463B69D31A022B01D9032387E0274BC9
:204380001B6803F00073002BF0D17B68DA697B681B6A1A437B685B6A9B011A437B689B6AD4
:2043A0005B08013B1B041A437B68DB6A1B061B4913434B601B4B01221A60FEF7A3FB386105
:2043C00008E0FEF79FFB02463B69D31A022B01D903235CE0114B1B6803F00073002BF0D0F4
:2043E00054E0104B00221A60FEF78CFB386108E0FEF788FB02463B69D31A022B01D9032317
:2044000045E0064B1B6803F00073002BF0D13DE07B689B69012B07D1012338E00038024093
:2044200000700040600047421B4B5B68FB607B689B69012B28D0FB6803F480027B68DB6951
:204440009A4221D1FB6803F03F027B681B6A9A421AD1FA6847F6C07313407A68526A920172
:20446000934211D1FB6803F440327B689B6A5B08013B1B049A4207D1FB6803F070627B6854
:20448000DB6A1B069A4201D0012300E0002318461837BD4680BD00BF0038024080B584B053
:2044A00000AF786039607B68002B01D10123CCE0684B1B6803F007033A689A420CD9654BE6
:2044C0003A68D2B21A70634B1B6803F007033A689A4201D00123B8E07B681B6803F0020395
:2044E000002B20D07B681B6803F00403002B05D0594B9B68584A43F4E05393607B681B6835
:2045000003F00803002B05D0534B9B68524A43F460439360504B9B6823F0F0027B689B680A
:204520004D4913438B607B681B6803F00103002B44D07B685B68012B07D1474B1B6803F452
:204540000033002B19D101237FE07B685B68022B03D07B685B68032B07D13F4B1B6803F03E
:204560000073002B09D101236FE03B4B1B6803F00203002B01D1012367E0374B9B6823F04F
:2045800003027B685B68344913438B60FEF7BAFAF8600AE0FEF7B6FA0246FB68D31A41F257
:2045A0008832934201D903234FE02B4B9B6803F00C027B685B689B009A42EBD1254B1B68F7
:2045C00003F007033A689A420CD2224B3A68D2B21A70204B1B6803F007033A689A4201D02B
:2045E000012332E07B681B6803F00403002B08D0194B9B6823F4E0527B68DB681649134397
:204600008B607B681B6803F00803002B09D0124B9B6823F460427B681B69DB000E4913433F
:204620008B6000F021F802460B4B9B681B0903F00F030A49CB5C22FA03F3094A1360094B16
:204640001B681846FDF7A6FF002318461037BD4680BD00BF003C0240003802403CA1040838
:2046600000000020040000202DE9B04F94B000AF00237B640023FB6400233B640023BB6466
:20468000794B9B6803F00C03082B0DD0082B00F2E180002B02D0042B03D0DBE0734BBB6424
:2046A000DBE0734BBB64D8E06F4B5B6803F03F037B646D4B5B6803F48003002B63D06A4B11
:2046C0005B689B090022BB63FA63BB6BC3F308033B6300237B63D7E90C4522462B464FF027
:2046E00000004FF00001590141EAD261500102460B462146511A3961294663EB01037B61CF
:204700004FF000024FF00003D7E904AB59468B01514643EA916351468A015146B2EB010865
:20472000594663EB01094FF000024FF000034FEAC90343EA58734FEAC802904699462346E1
:2047400018EB0303BB602B4649EB0303FB604FF000024FF00003D7E9024529464B02214682
:2047600043EAD15321464A02104619467B6C0022BB62FA62D7E90A23FCF71EFA02460B466D
:204780001346FB6458E0384B5B689B09002218461146C0F308033B6200237B62D7E90889BC
:2047A00042464B464FF000004FF00001590141EAD261500102460B464146B2EB010A494601
:2047C00063EB010B4FF000024FF000034FEA8B1343EA9A634FEA8A12B2EB0A0463EB0B051D
:2047E0004FF000024FF00003EB0043EA5473E20014461D464346E3183B604B4645EB0303D2
:204800007B604FF000024FF00003D7E9004529468B02214643EA915321468A021046194619
:204820007B6C0022BB61FA61D7E90623FCF7C4F902460B461346FB640B4B5B681B0C03F0DB
:20484000030301335B003B64FA6C3B6CB2FBF3F3BB6402E0054BBB6400BFBB6C1846503749
:20486000BD46BDE8B08F00BF003802400024F40000127A0080B400AF034B1B681846BD465F
:204880005DF8047B704700BF0000002080B500AFFFF7F0FF0246054B9B689B0A03F00703A8
:2048A0000349CB5C22FA03F3184680BD003802404CA1040880B500AFFFF7DCFF0246054B18
:2048C0009B685B0B03F007030349CB5C22FA03F3184680BD003802404CA1040880B483B078
:2048E00000AF786039607B680F221A60124B9B6803F003027B685A600F4B9B6803F0F002D3
:204900007B689A600C4B9B6803F4E0527B68DA60094B9B68DB0803F4E0527B681A61074B07
:204920001B6803F007023B681A6000BF0C37BD465DF8047B704700BF00380240003C024094
:2049400080B582B000AF78607B68002B01D1012341E07B6893F83D30DBB2002B06D17B68F7
:20496000002283F83C207868FDF7D2FF7B68022283F83D207B681A687B6804331946104686
:2049800000F0E2FA7B68012283F846207B68012283F83E207B68012283F83F207B6801229F
:2049A00083F840207B68012283F841207B68012283F842207B68012283F843207B6801226D
:2049C00083F844207B68012283F845207B68012283F83D20002318460837BD4680BD000034
:2049E00080B485B000AF78607B6893F83D30DBB2012B01D001233CE07B68022283F83D2043
:204A00007B681B681E4A934218D07B681B68B3F1804F13D07B681B681A4A93420ED07B68EF
:204A20001B68194A934209D07B681B68174A934204D07B681B68164A934211D17B681B688F
:204A40009B6803F00703FB60FB68062B10D07B681B681A687B681B6842F001021A6007E0A3
:204A60007B681B681A687B681B6842F001021A60002318461437BD465DF8047B704700BF20
:204A8000000001400004004000080040000C00400040014080B485B000AF78607B6893F81E
:204AA0003D30DBB2012B01D0012344E07B68022283F83D207B681B68DA687B681B6842F098
:204AC0000102DA607B681B681E4A934218D07B681B68B3F1804F13D07B681B681A4A9342B3
:204AE0000ED07B681B68194A934209D07B681B68174A934204D07B681B68164A934211D174
:204B00007B681B689B6803F00703FB60FB68062B10D07B681B681A687B681B6842F00102DD
:204B20001A6007E07B681B681A687B681B6842F001021A60002318461437BD465DF8047B74
:204B4000704700BF000001400004004000080040000C00400040014080B582B000AF786057
:204B60007B681B681B6903F00203022B22D17B681B68DB6803F00203022B1BD17B681B6813
:204B80006FF002021A617B6801221A777B681B689B6903F00303002B03D0786800F0B5F9C1
:204BA00005E0786800F0A7F9786800F0B8F97B6800221A777B681B681B6903F00403042B76
:204BC00022D17B681B68DB6803F00403042B1BD17B681B686FF004021A617B6802221A7746
:204BE0007B681B689B6903F44073002B03D0786800F08BF905E0786800F07DF9786800F054
:204C00008EF97B6800221A777B681B681B6903F00803082B22D17B681B68DB6803F00803C2
:204C2000082B1BD17B681B686FF008021A617B6804221A777B681B68DB6903F00303002BA3
:204C400003D0786800F061F905E0786800F053F9786800F064F97B6800221A777B681B682D
:204C60001B6903F01003102B22D17B681B68DB6803F01003102B1BD17B681B686FF01002CF
:204C80001A617B6808221A777B681B68DB6903F44073002B03D0786800F037F905E07868E4
:204CA00000F029F9786800F03AF97B6800221A777B681B681B6903F00103012B0ED17B687A
:204CC0001B68DB6803F00103012B07D17B681B686FF001021A617868FDF74EF97B681B684F
:204CE0001B6903F08003802B0ED17B681B68DB6803F08003802B07D17B681B686FF0800247
:204D00001A61786800F0B2FA7B681B681B6903F04003402B0ED17B681B68DB6803F0400353
:204D2000402B07D17B681B686FF040021A61786800F0FFF87B681B681B6903F02003202B9C
:204D40000ED17B681B68DB6803F02003202B07D17B681B686FF020021A61786800F07CFAEA
:204D600000BF0837BD4680BD80B584B000AF786039600023FB737B6893F83C30012B01D103
:204D80000223B4E07B68012283F83C207B68022283F83D207B681B689B68BB60BB6823F0E4
:204DA0007703BB60BB6823F47F43BB607B681B68BA689A603B681B68B3F5005F3ED0B3F5E2
:204DC000005F00F28780B3F5805F00F08680B3F5805F7FD8702B1AD0702B7BD8602B50D002
:204DE000602B77D8502B3CD0502B73D8402B58D0402B6FD8302B64D0302B6BD8202B60D09F
:204E0000202B67D8002B5CD0102B5AD062E07B6818683B6899683B685A683B68DB6800F0C8
:204E20008DF97B681B689B68BB60BB6843F07703BB607B681B68BA689A604FE07B68186869
:204E40003B6899683B685A683B68DB6800F076F97B681B689A687B681B6842F480429A6044
:204E60003CE07B6818683B6859683B68DB681A4600F0EAF87B681B685021184600F043F9D6
:204E80002CE07B6818683B6859683B68DB681A4600F009F97B681B686021184600F033F9A6
:204EA0001CE07B6818683B6859683B68DB681A4600F0CAF87B681B684021184600F023F906
:204EC0000CE07B681A683B681B681946104600F01AF903E00123FB7300E000BF7B68012289
:204EE00083F83D207B68002283F83C20FB7B18461037BD4680BD80B483B000AF786000BFF6
:204F00000C37BD465DF8047B704780B483B000AF786000BF0C37BD465DF8047B704780B40E
:204F200083B000AF786000BF0C37BD465DF8047B704780B483B000AF786000BF0C37BD4634
:204F40005DF8047B7047000080B485B000AF786039607B681B68FB607B68344A93420FD067
:204F60007B68B3F1804F0BD07B68314A934207D07B68304A934203D07B682F4A934208D1E7
:204F8000FB6823F07003FB603B685B68FA681343FB607B68254A93421BD07B68B3F1804FEC
:204FA00017D07B68224A934213D07B68214A93420FD07B68204A93420BD07B681F4A9342E3
:204FC00007D07B681E4A934203D07B681D4A934208D1FB6823F44073FB603B68DB68FA683F
:204FE0001343FB60FB6823F080023B685B691343FB607B68FA681A603B689A687B68DA626D
:205000003B681A687B689A627B68084A934203D13B681A697B681A637B6801225A6100BFA8
:205020001437BD465DF8047B704700BF000001400004004000080040000C0040004001403E
:20504000004401400048014080B487B000AFF860B9607A60FB681B6A7B61FB681B6A23F01E
:205060000102FB681A62FB689B693B613B6923F0F0033B617B681B013A6913433B617B698D
:2050800023F00A037B617A69BB6813437B61FB683A699A61FB687A691A6200BF1C37BD4604
:2050A0005DF8047B704780B487B000AFF860B9607A60FB681B6A23F01002FB681A62FB68B1
:2050C0009B697B61FB681B6A3B617B6923F470437B617B681B037A6913437B613B6923F015
:2050E000A0033B61BB681B013A6913433B61FB687A699A61FB683A691A6200BF1C37BD46C5
:205100005DF8047B704780B485B000AF786039607B689B68FB60FB6823F07003FB603A6854
:20512000FB68134343F00703FB607B68FA689A6000BF1437BD465DF8047B704780B487B0DC
:2051400000AFF860B9607A603B60FB689B687B617B6923F47F437B613B681A027B681A43E0
:20516000BB6813437A6913437B61FB687A699A6000BF1C37BD465DF8047B704780B485B058
:2051800000AF786039607B6893F83C30012B01D1022350E07B68012283F83C207B680222DE
:2051A00083F83D207B681B685B68FB607B681B689B68BB60FB6823F07003FB603B681B68A5
:2051C000FA681343FB607B681B68FA685A607B681B681C4A934218D07B681B68B3F1804FD8
:2051E00013D07B681B68184A93420ED07B681B68164A934209D07B681B68154A934204D06F
:205200007B681B68134A93420CD1BB6823F08003BB603B685B68BA681343BB607B681B68E6
:20522000BA689A607B68012283F83D207B68002283F83C20002318461437BD465DF8047BF5
:20524000704700BF000001400004004000080040000C00400040014080B483B000AF786050
:2052600000BF0C37BD465DF8047B704780B483B000AF786000BF0C37BD465DF8047B704720
:2052800080B582B000AF78607B68002B01D101233FE07B6893F83D30DBB2002B06D17B68B0
:2052A000002283F83C207868FDF784FB7B68242283F83D207B681B68DA687B681B6822F47D
:2052C0000052DA60786800F029F97B681B681A697B681B6822F490421A617B681B685A6975
:2052E0007B681B6822F02A025A617B681B68DA687B681B6842F40052DA607B6800221A64FC
:205300007B68202283F83D207B68202283F83E20002318460837BD4680BD80B58AB002AF72
:20532000F860B9603B601346FB8000237B61FB6893F83D30DBB2202B7CD1BB68002B02D0EE
:20534000FB88002B01D1012375E0FB6893F83C30012B01D102236EE0FB68012283F83C202C
:20536000FB6800221A64FB68212283F83D20FDF7C9FB7861FB68FA889A84FB68FA88DA84D5
:20538000FB689B68B3F5805F08D1FB681B69002B04D10023FB61BB68BB6103E0BB68FB6140
:2053A0000023BB61FB68002283F83C202AE03B6800937B6900228021F86800F040F803469A
:2053C000002B01D0032336E0FB69002B0BD1BB691B881A46FB681B68C2F308025A60BB6980
:2053E0000233BB6107E0FB691A78FB681B685A60FB690133FB61FB68DB8C9BB2013B9AB24C
:20540000FB68DA84FB68DB8C9BB2002BCFD13B6800937B6900224021F86800F010F80346AB
:20542000002B01D0032306E0FB68202283F83D20002300E0022318462037BD4680BD80B595
:2054400090B000AFF860B9603B601346FB7150E0BB6CB3F1FF3F4CD0BB6C002B07D0FDF71A
:2054600051FB02463B68D31ABA6C9A4241D2FB681B680C33BB62BB6A53E8003F7B627B6A50
:2054800023F4D073FB63FB681B680C33FA6B7A633B63396B7A6B41E80023FB62FB6A002B8D
:2054A000E5D1FB681B6814337B617B6953E8003F3B613B6923F00103BB63FB681B6814332D
:2054C000BA6B3A62FB61F9693A6A41E80023BB61BB69002BE5D1FB68202283F83D20FB685C
:2054E000202283F83E20FB68002283F83C2003230FE0FB681B681A68BB681340BA689A4244
:205500000CBF01230023DBB21A46FB799A429FD0002318464037BD4680BD00002DE9B04F80
:20552000C0B000AFC7F8F400D7F8F4301B681B6923F44050D7F8F430D968D7F8F4301A684F
:2055400040EA01031361D7F8F4309A68D7F8F4301B691A43D7F8F4305B691A43D7F8F430D9
:20556000DB691343C7F8F830D7F8F4301B68DB6823F4164121F00C01D7F8F4301A68D7F821
:20558000F8300B43D360D7F8F4301B685B6923F44070D7F8F4309969D7F8F4301A6840EACD
:2055A00001035361D7F8F4301A688F4B9A4205D0D7F8F4301A688D4B9A4204D1FFF77AF9CC
:2055C000C7F8FC0003E0FFF761F9C7F8FC00D7F8F430DB69B3F5004F40F00C81D7F8FC303C
:2055E0000022C7F8E830C7F8EC20D7E93A4522462B469118B9655B41FB65D7E916232146AC
:2056000012EB0108294643EB01094FF000024FF000034FEAC90343EA58734FEAC802904684
:205620009946234618EB0303C7F8E0302B4649EB0303C7F8E430D7F8F4305B680022C7F835
:20564000D830C7F8DC20D7E936120B46DB183B65134642EB03037B65D7E91423D7E938013F
:20566000FBF7AAFA02460B46614BA3FB02235B091C01D7F8FC300022C7F8D030C7F8D4207C
:20568000D7E9348942464B469118B9645B41FB64D7E91223414612EB010A494643EB010B66
:2056A0004FF000024FF000034FEACB0343EA5A734FEACA0292469B4643461AEB0303C7F855
:2056C000C8304B464BEB0303C7F8CC30D7F8F4305B680022C7F8C030C7F8C420D7E930121E
:2056E0000B46DB183B64134642EB03037B64D7E91023D7E93201FBF75FFA02460B4611463B
:205700003B4BA3FB01235B09642202FB03F3CB1ADB0003F13202364BA3FB02235B095B0079
:2057200003F4F8731C44D7F8FC300022C7F8B830C7F8BC20D7E92E8942464B469118B963F3
:205740005B41FB63D7E90E2341465118396349464B417B634FF000024FF00003D7E90CABDF
:205760005946CB00514643EA51735146CA0010461946034642469B18C7F8B0304B460A461D
:2057800042EB0303C7F8B430D7F8F4305B680022C7F8A830C7F8AC20D7E92A120B46DB18F9
:2057A000BB62134642EB0303FB62D7E90A23D7E92C01FBF701FA02460B460D4BA3FB021378
:2057C0005B09642101FB03F3D31ADB003233084AA2FB03235B0903F00702D7F8F4301B68D6
:2057E00022449A6005E100BF00100140001401401F85EB51D7F8FC300022C7F8A030C7F8B3
:20580000A420D7E9288942464B46911839625B417B62D7E9082341465418494643EB0105DC
:205820004FF000024FF00003EB0043EA5473E20014461D464346E318C7F898304B4645EB9B
:205840000303C7F89C30D7F8F4305B680022C7F89030C7F894204FF000024FF00003D7E9AA
:20586000244529468B00214643EA917321468A00D7E92601FBF7A0F902460B46604BA3FBE8
:2058800002235B091C01D7F8FC300022C7F88830C7F88C20D7E9228942464B469118B9611C
:2058A0005B41FB61D7E9062341465118396149464B417B614FF000024FF00003D7E904AB94
:2058C0005946CB00514643EA51735146CA0010461946034642469B18C7F880304B460A46EC
:2058E00042EB0303C7F88430D7F8F4305B680022BB67FA674FF000024FF00003D7E91E89BD
:2059000049468B00414643EA917341468A00D7E92001FBF751F902460B46394BA3FB0213B7
:205920005B09642101FB03F3D31A1B013233344AA2FB03235B0903F0F0031C44D7F8FC3038
:2059400000223B677A67D7E91C8942464B469118B9605B41FB60D7E90223414651183960FD
:2059600049464B417B604FF000024FF00003D7E900AB5946CB00514643EA51735146CA00F0
:2059800010461946034642469B18BB664B460A4642EB0303FB66D7F8F4305B6800223B66BF
:2059A0007A664FF000024FF00003D7E9188949468B00414643EA917341468A00D7E91A0165
:2059C000FBF7FAF802460B460D4BA3FB02135B09642101FB03F3D31A1B013233084AA2FB07
:2059E00003235B0903F00F02D7F8F4301B6822449A6000BF07F58077BD46BDE8B08F00BFEB
:205A00001F85EB5180B485B000AF0346FB800023FB60B7F90630842B05D0B7F90620FB68A9
:205A200013440333FB60FB6818461437BD465DF8047B704780B500AF00F086FB002318460E
:205A400080BDF0B589B004AF786039607B685B69002B20D07B689B69002B1CD07B685C68A0
:205A60007B681D687B681E697B68B3F908301846FFF7C8FF01467B685B697A689269029213
:205A8000019300913B6832462946204600F0EDF80346FB601CE07B685C687B681D687B688A
:205AA0001B699EB27B68B3F908301846FFF7AAFF024607F10C03019300923B68324629464F
:205AC000204600F02FF90346012B01D0002300E0FB6818461437BD46F0BD80B584B000AF2B
:205AE00078607B68FB60FB68002B01D0FB6800E00123184600F0F4FA002318461037BD46C3
:205B000080BD80B483B000AF78607B6803F108027B685A607B684FF0FF329A607B6803F1B8
:205B200008027B68DA607B6803F108027B681A617B6800221A6000BF0C37BD465DF8047BA7
:205B4000704780B483B000AF78607B6800221A6100BF0C37BD465DF8047B704780B485B027
:205B600000AF786039607B685B68FB603B68FA685A60FB689A683B689A60FB689B683A683B
:205B80005A60FB683A689A603B687A681A617B681B685A1C7B681A6000BF1437BD465DF8B1
:205BA000047B704780B485B000AF786039603B681B68BB60BB68B3F1FF3F03D17B681B69A5
:205BC000FB600CE07B680833FB6002E0FB685B68FB60FB685B681B68BA689A42F6D2FB68D0
:205BE0005A683B685A603B685B683A689A603B68FA689A60FB683A685A603B687A681A61C6
:205C00007B681B685A1C7B681A6000BF1437BD465DF8047B704780B485B000AF78607B68E0
:205C20001B69FB607B685B687A6892689A607B689B687A6852685A60FB685B687A689A42E9
:205C400003D17B689A68FB685A607B6800221A61FB681B685A1EFB681A60FB681B6818466F
:205C60001437BD465DF8047B704780B58EB004AFF860B9607A603B607B6B002B0AD14FF014
:205C8000500383F31188BFF36F8FBFF34F8F3B6200BFFEE7BB6B002B0AD14FF0500383F3ED
:205CA0001188BFF36F8FBFF34F8FFB6100BFFEE7B4233B613B69B42B0AD04FF0500383F333
:205CC0001188BFF36F8FBFF34F8FBB6100BFFEE73B69BB6B002B1ED07B6B002B1BD0BB6B26
:205CE0007B627B6A7A6B1A637B6A022283F8B120002303937B6A029307F1140301933B6BAF
:205D000000933B687A68B968F86800F051F8786A00F0ECF801E000237B617B69184628377A
:205D2000BD4680BD80B58CB004AFF860B9603B601346FB80FB889B00184600F085FF786156
:205D40007B69002B0ED0B42000F07EFFF861FB69002B03D0FB697A691A6305E0786901F0DF
:205D60003FF801E00023FB61FB69002B17D0FB69002283F8B120FA8800230393FB69029310
:205D8000FB6A0193BB6A00933B68B968F86800F00FF8F86900F0AAF80123BB6102E04FF0E3
:205DA000FF33BB61BB6918462037BD4680BD000080B588B000AFF860B9607A603B603B6BD4
:205DC0001A6B7B6803F18043013B9B001344BB61BB6923F00703BB61BB6903F00703002BB1
:205DE0000AD04FF0500383F31188BFF36F8FBFF34F8F7B6100BFFEE7BB68002B1FD0002308
:205E0000FB6112E0BA68FB69134419783A6BFB69134434330A461A70BA68FB6913441B78B5
:205E2000002B06D0FB690133FB61FB690F2BE9D900E000BF3B6B002283F8432003E03B6B3F
:205E4000002283F83420BB6A062B01D90623BB623B6BBA6ADA623B6BBA6A5A643B6B002285
:205E60009A643B6B04331846FFF76BFE3B6B18331846FFF766FE3B6B3A6B1A61BB6AC3F142
:205E800007023B6B9A613B6B3A6B5A623B6B0022C3F8AC203B6B002283F8B0203B6B4C33CA
:205EA00060220021184601F0EAF93B6B0C4A1A653B6B0C4A5A653B6B0B4A9A653A68F968DA
:205EC000B86900F0AFFC02463B6B1A60FB6A002B02D0FB6A3A6B1A6000BF2037BD4680BD62
:205EE00074A1040894A1040854A1040880B582B000AF786000F0C6FD2A4B1B680133294AFF
:205F00001360294B1B68002B09D1274A7B681360244B1B68012B10D100F05CFB0DE0234BAA
:205F20001B68002B09D1204B1B68DA6A7B68DB6A9A4202D81C4A7B6813601D4B1B680133EE
:205F40001B4A13607B68DB6A01229A40194B1B681343184A13607B68DA6A13469B001344C0
:205F60009B00154A1A447B68043319461046FFF7F5FD00F0B7FD0D4B1B68002B0ED00A4B35
:205F80001B68DA6A7B68DB6A9A4207D20B4B4FF080521A60BFF34F8FBFF36F8F00BF08373E
:205FA000BD4680BD38070020380600204407002054070020400700203C06002004ED00E064
:205FC00080B584B000AF786000F05CFD7B68002B02D1394B1B6800E07B68FB60FB680433E8
:205FE0001846FFF718FE0346002B15D1FB68DA6A324913469B0013449B000B441B68002BD8
:206000000AD1FB68DB6A012202FA03F3DA432C4B1B6813402A4A1360FB689B6A002B04D030
:20602000FB6818331846FFF7F6FD264B1B680133244A1360204B1B68FA689A420BD1FB68F7
:20604000043319462048FFF789FD204B1B6801331E4A136009E01E4B1B68013B1C4A1360DF
:20606000F86800F025FB00F057FB00F03BFD194B1B68002B1BD0104B1B68FA689A4216D146
:20608000154B1B68002B0AD04FF0500383F31188BFF36F8FBFF34F8FBB6000BFFEE70F4B1E
:2060A0004FF080521A60BFF34F8FBFF36F8F00BF1037BD4680BD00BF380600203C06002050
:2060C00040070020540700200C0700202007002038070020440700206007002004ED00E042
:2060E00080B584B000AF78600023FB607B68002B17D0134B1B68002B0AD04FF0500383F34F
:206100001188BFF36F8FBFF34F8FBB6000BFFEE700F084F80021786800F01EFB00F08CF8FD
:20612000F860FB68002B07D1064B4FF080521A60BFF34F8FBFF36F8F00BF1037BD4680BD3F
:206140006007002004ED00E080B58AB004AF0023BB6000237B603A46391D07F10803184652
:20616000FBF78AFC39687B68BA68029201930023009300230A4621492148FFF776FD03462B
:20618000204A13601F4B1B68002B02D001237B6101E000237B617B69012B1BD14FF05003CA
:2061A00083F31188BFF36F8FBFF34F8F3B6100BF154B1B684C33154A1360154B4FF0FF3231
:2061C0001A60144B01221A60134B00221A6000F0B7FB0EE07B69B3F1FF3F0AD14FF050038C
:2061E00083F31188BFF36F8FBFF34F8FFB6000BFFEE700BF1837BD4680BD00BF2CA104086B
:20620000A56504085C070020380600201000002058070020440700203C07002080B400AF27
:20622000044B1B680133034A136000BFBD465DF8047B70476007002080B584B000AF002389
:20624000FB600023BB60414B1B68002B0AD14FF0500383F31188BFF36F8FBFF34F8F3B6014
:2062600000BFFEE700F00EFC384B1B68013B374A1360364B1B68002B61D1354B1B68002BBB
:206280005DD02EE0334BDB68DB68FB60FB6818331846FFF7C0FCFB6804331846FFF7BBFC01
:2062A000FB68DB6A01229A402B4B1B6813432A4A1360FB68DA6A13469B0013449B00274A05
:2062C0001A44FB68043319461046FFF747FCFB68DA6A234B1B68DB6A9A4202D3214B0122BB
:2062E0001A601C4B1B68002BCCD1FB68002B01D000F012FA1C4B1B687B607B68002B10D064
:2063000000F036F80346002B02D0164B01221A607B68013B7B607B68002BF1D1124B0022D2
:206320001A60104B1B68002B09D00123BB600F4B4FF080521A60BFF34F8FBFF36F8F00F0AD
:20634000D1FBBB6818461037BD4680BD6007002038070020F8060020400700203C0600209C
:20636000380600204C0700204807002004ED00E080B586B000AF00237B614E4B1B68002BAC
:2063800040F08E804C4B1B6801333B614A4A3B6913603B69002B20D1484B1B681B68002BA6
:2063A0000AD04FF0500383F31188BFF36F8FBFF34F8F3B6000BFFEE7404B1B68FB60404BEF
:2063C0001B683E4A13603E4AFB6813603D4B1B6801333C4A136000F09FF93B4B1B683A6975
:2063E0009A4248D3354B1B681B68002B04D1364B4FF0FF321A603EE0304B1B68DB68DB6813
:20640000BB60BB685B687B603A697B689A4203D22D4A7B6813602EE0BB6804331846FFF7E0
:20642000FAFBBB689B6A002B04D0BB6818331846FFF7F1FBBB68DB6A01229A40234B1B683C
:206440001343224A1360BB68DA6A13469B0013449B001F4A1A44BB68043319461046FFF7EE
:206460007DFBBB68DA6A1B4B1B68DB6A9A42B9D301237B61B6E7174B1B68DA6A144913462B
:206480009B0013449B000B441B68012B01D901237B61114B1B68002B07D001237B6104E0D2
:2064A0000E4B1B6801330D4A13607B6918461837BD4680BD600700203C070020F006002031
:2064C000F40600205007002058070020400700203C060020380600204C07002048070020A3
:2064E00080B487B000AF294B1B68002B03D0284B01221A6044E0264B00221A60254B1B6859
:20650000FB60FB68B3FA83F3FB72FB7AC3F11F037B6121497A6913469B0013449B000B4484
:206520001B68002B0AD14FF0500383F31188BFF36F8FBFF34F8F7B6000BFFEE77A69134636
:206540009B0013449B00144A13443B613B695B685A683B695A603B695A683B6908339A42B5
:2065600004D13B695B685A683B695A603B695B68DB680A4A1360094B1B684C33084A136033
:2065800000BF1C37BD465DF8047B7047600700204C070020400700203C060020380600203A
:2065A0001000002080B582B000AF786000F052F8064B1B68012BF9D9054B4FF080521A60D6
:2065C000BFF34F8FBFF36F8FF0E700BF3C06002004ED00E080B582B000AF00237B600CE0B2
:2065E0007A6813469B0013449B00124A13441846FFF787FA7B6801337B607B68062BEFD97D
:206600000D48FFF77EFA0D48FFF77BFA0C48FFF778FA0C48FFF775FA0B48FFF772FA0B4B77
:20662000054A1A600A4B054A1A6000BF0837BD4680BD00BF3C060020C8060020DC06002024
:20664000F80600200C07002024070020F0060020F406002080B582B000AF19E000F012FA63
:20666000104BDB68DB687B607B6804331846FFF7D2FA0D4B1B68013B0B4A13600B4B1B686C
:20668000013B0A4A136000F02DFA786800F010F8064B1B68002BE1D100BF00BF0837BD4697
:2066A00080BD00BF0C070020380700202007002080B584B000AF78607B684C33184601F064
:2066C00081FB7B6893F8B130002B08D17B681B6B184600F085FB786800F082FB18E07B688C
:2066E00093F8B130012B03D1786800F079FB0FE07B6893F8B130022B0AD04FF0500383F39D
:206700001188BFF36F8FBFF34F8FFB6000BFFEE700BF1037BD4680BD80B483B000AF0C4BEE
:206720001B681B68002B04D10A4B4FF0FF321A6008E0074B1B68DB68DB687B607B685B6850
:20674000044A136000BF0C37BD465DF8047B7047F00600205807002080B584B000AF786063
:206760003960294B1B68FB60284B1B6804331846FFF751FA0346002B0BD1244B1B68DB6ADB
:20678000012202FA03F3DA43214B1B681340204A13607B68B3F1FF3F0AD13B68002B07D063
:2067A0001A4B1B68043319461A48FFF7D7F926E0FA687B681344BB60144B1B68BA685A60B8
:2067C000BA68FB689A4209D2134B1A680F4B1B68043319461046FFF7E5F910E00F4B1A6834
:2067E0000A4B1B68043319461046FFF7DBF90C4B1B68BA689A4202D2094ABB68136000BFB7
:206800001037BD4680BD00BF3C070020380600204007002024070020F4060020F00600208F
:206820005807002080B485B000AFF860B9607A60FB68043BFB60FB684FF080721A60FB6808
:20684000043BFB60BB6823F00102FB681A60FB68043BFB600C4AFB681A60FB68143BFB604B
:206860007A68FB681A60FB68043BFB60FB686FF002021A60FB68203BFB60FB6818461437F7
:20688000BD465DF8047B70478D68040880B485B000AF00237B60124B1B68B3F1FF3F0AD0B7
:2068A0004FF0500383F31188BFF36F8FBFF34F8FFB6000BFFEE74FF0500383F31188BFF3A5
:2068C0006F8FBFF34F8FBB6000BF00BF7B68002BFCD000BF00BF1437BD465DF8047B704760
:2068E0000C000020000000000000000000000000074B19680868B0E8F04F80F30988BFF39C
:206900006F8F4FF0000080F311887047AFF300803806002000BF00BF08480068006880F3E6
